:020000040800F2
:1000000000500020356D00087D6D00087D6D0008F2
:100010007D6D00087D6D00087D6D0008000000000A
:100020000000000000000000000000007D6D0008DE
:100030007D6D0008000000007D6D00082D040008A3
:100040007D6D00087D6D00087D6D00087D6D0008E8
:100050007D6D00087D6D00087D6D00089D04000821
:100060007D6D00087D6D00087D6D00085504000859
:100070007D6D00087D6D00087D6D00087D6D0008B8
:100080007D6D00087D6D00087D6D00087D6D0008A8
:100090007D6D00087D6D00087D6D00087D6D000898
:1000A0007D6D00087D6D00087D6D00087D6D000888
:1000B0007D6D00087D6D00087D6D00087D6D000878
:1000C0007D6D00087D6D00087D6D00087D6D000868
:1000D0007D6D00087D6D00087D6D00087D6D000858
:1000E0007D6D00087D6D00087D6D0008000000003A
:1000F0000000000000000000000000000000000000
:0C01000000000000000000005FF808F1A3
:10010C0010B5054C237833B9044B13B10448AFF345
:10011C0000800123237010BD6C040020000000003F
:10012C000C01000808B5034B1BB103490348AFF39E
:10013C00008008BD00000000700400200C010008C5
:10014C00F0B5274D274C83B0284601224FF480414F
:10015C0005F0FCF81026012728464FF4C0436946E9
:10016C000325ADF800308DF802708DF8036005F0B2
:10017C006FF8204601A9A0221823ADF804208DF8B1
:10018C0007308DF8065005F063F84022042301A9CE
:10019C002046ADF804208DF8073005F059F801A978
:1001AC002046ADF804608DF807608DF8065005F018
:1001BC004FF801A9204600238DF80730ADF80470E4
:1001CC0005F046F80222282301A920468DF8065096
:1001DC00ADF804208DF8073005F03AF803B0F0BD07
:1001EC00001001400008014010B50B4C84B04722B0
:1001FC007C2301A92046CDE9012305F0B5FA204660
:10020C0005F07AFD2046202105F078FF204680215C
:10021C0005F088FF04B010BD000400400121014826
:10022C0005F03EBD0004004030B50C4C87B04FF0DB
:10023C00827100230A22204601914FF0007501A91A
:10024C000293CDE90353ADF8142006F017F82046BD
:10025C00012106F091F807B030BD00BF003001401D
:10026C0070B58CB0134C144B1449019302910023BC
:10027C0064224FF480712046039305930B930492F0
:10028C004FF4005320220791802601A94FF480657A
:10029C000A93CDE90852069606F072FB204601221D
:1002AC00022106F0A7FB20460122042106F0A2FB46
:1002BC000CB070BD080002404C240140FC1600201C
:1002CC0008B50121034806F089FB034B4FF400628B
:1002DC001A6008BD0800024000E100E030B54FF4A0
:1002EC00004087B004F046FE00244FF400230125A3
:1002FC0001A90E480194CDE903348DF808408DF81E
:10030C0009408DF8145006F013F90848234621468D
:10031C002A46044606F08CF9204606F05FF9204682
:10032C0006F062F90028FAD007B030BD0024014075
:10033C0010B5074C0121204606F028F92046012172
:10034C0006F02EF920460121BDE8104006F0B6B9A2
:10035C000024014008B50121102004F08BFE01217E
:10036C00042004F087FE0121084604F083FE0121DD
:10037C00022004F08BFE01214FF4805004F07AFE31
:10038C0001214FF4007004F075FE01210846BDE810
:10039C00084004F063BE00BF10B582B000210822F3
:1003AC000123022468468DF805208DF80630009450
:1003BC008DF8041006F058FB024B80221A6002B034
:1003CC0010BD00BF00E100E0074B1A781AB11A7893
:1003DC00013AD2B21A70054A13781BB11378013B5B
:1003EC00DBB21370704700BF5C190020C8170020E7
:1003FC00024A936801339360704700BF8804002061
:10040C00034A916893685B1A8342FBD3704700BF21
:10041C0088040020014B9868704700BF88040020B6
:10042C0008B508490B7B0133DBB20B730B7B092B33
:10043C0003D900230B73FFF7C7FF8B6801338B6065
:10044C0008BD00BF8804002038B5104C2578012D5C
:10045C0000D038BD022006F0F5FA50B9042006F0A1
:10046C00F1FA0028F5D065700420BDE8384006F09C
:10047C00EBBAE2896368A5707D330132E281636077
:10048C000220BDE8384006F0DFBA00BF8804002027
:10049C0008B5022006F030FB90B10A4B1A7842B135
:1004AC00012A04BF00221A700220BDE8084006F0A1
:1004BC002DBB01221A700220BDE8084006F026BBB5
:1004CC0008BD00BF8804002070B58CB0114C07919A
:1004DC005201D2081049114D0B9202F124060191E0
:1004EC000395049410230E4A0E4D05934FF4FA41D4
:1004FC0004F1824406920891A4F602446B462C2225
:10050C0001A90296CDE9095402F088FD01200CB036
:10051C0070BD00BF666D7420524946465741564522
:10052C0001000200040010003A4B3B4A196841F0EC
:10053C000101196059680A405A601A6822F08472E5
:10054C0022F480321A601A6822F480221A605A68E7
:10055C0082B022F4FE0200214FF41F005A60986012
:10056C00009101911A6842F480321A601A4603E035
:10057C00009BB3F5A06F09D0136803F4003301930B
:10058C00009B01330093019B002BF1D0214B1B6886
:10059C0013F4003318BF01230193019B012B05D0E9
:1005AC001E4B4FF000629A6002B070471C4A194B08
:1005BC00116841F010011160116821F00301116004
:1005CC00116841F0020111605A685A605A685A6009
:1005DC005A6842F480625A605A6822F47C125A605B
:1005EC005A6842F4E8125A601A6842F080721A6033
:1005FC001A689201FCD55968064A21F0030159602A
:10060C00596841F002015960536803F00C03082B40
:10061C00FAD1C5E7001002400000FFF800ED00E041
:10062C0000200240114A536803F00C03082B0ED132
:10063C0053685168C3F38343C90303F1020310D514
:10064C00526892030DD40A4A02FB03F300E0084BF4
:10065C00064A08495268C2F303128A5CD3400B6104
:10066C007047054A02FB03F3F2E700BF001002409B
:10067C0000127A000000002000093D0008B5034973
:10068C00034800F089F8034B187008BD8C29002032
:10069C0014000020902900207F281AD991B910B499
:1006AC000E4AC72303E0802916D032F8023F984245
:1006BC008CB201F10101F6D104F1800080B25DF839
:1006CC00044B7047FF2805D8044B803833F81000D2
:1006DC0070477047002070470020F0E7E46E000878
:1006EC00612810D0094901226223834205D031F8D8
:1006FC00023F0132002BF8D17047054B03EB42024D
:10070C00B2F8E00270474120F6E700BFE66F000840
:10071C00E46E000810B403780A49303BDBB201EBFD
:10072C008304626852B14A7A0B44013A0020D2B277
:10073C0018724A7260605DF8044B704701205DF8D6
:10074C00044B70479C040020F0B4124B5C7A012CD3
:10075C0002D90120F0BC704793F809C05F7A5E7A29
:10076C005C7A03EB8707E4B25FFA8CFC78600025B7
:10077C001E44601C03F80C50C0B2327258723034F4
:10078C003A262F2228460C70CD704E708A70F0BC21
:10079C00704700BF9C040020104B5A7A012A01D9E3
:1007AC0001207047F0B45F7A5E7A5D7A5C7A03EB75
:1007BC008606E4B2FFB2706000221D44601CDA555C
:1007CC00C0B258722A7230343A252F230C7010465E
:1007DC004D70CA708B70F0BC704700BF9C04002039
:1007EC00024B5B7A03B195E7012070479C04002013
:1007FC00024B5B7A0BB9012070478BE79C040020FD
:10080C00014B587A704700BF9C040020034B03EB4C
:10081C00800203445268187A536818479C040020DD
:10082C00064B1A5C42B903EB800201211954526841
:10083C0003441268187A1047002070479C0400206B
:10084C0030B4054C04EB800504446D68207AAC6828
:10085C00A44630BC604700BF9C04002030B4054C5B
:10086C0004EB800504446D68207AEC68A44630BC27
:10087C00604700BF9C040020054B10B403EB8004C0
:10088C0003446468187A23695DF8044B184700BF69
:10089C009C0400200020704700F06EB900F064BA90
:1008AC0000F06CBA00F0C6BA00F036BB38B50D4C8F
:1008BC008021204605F0DEFD0128F9D0094D0948BC
:1008CC00022105F0D7FD0128F9D1FF23054CAB819E
:1008DC008021044805F0CEFD0128F9D0A089C0B2D2
:1008EC0038BD00BF0030014010B5064C32232370D8
:1008FC00FFF7DCFF01E023781BB1FFF7D7FFFF28E0
:10090C00F9D110BDC8170020F8B507460C46FFF703
:10091C00EBFFFF2801D00020F8BD244D2348022115
:10092C0005F0A8FD0128F9D1A3B2FD2CAB8135D07F
:10093C001E4EBC1C07F2022714F8025C1B48022155
:10094C0005F098FD0128F9D1ADB2B58114F8015C20
:10095C001648022105F08EFD0128F9D10234ADB202
:10096C00BC42B581E8D1FFF7A1FF4124FFF79EFF00
:10097C0002E013F0FF0407D0FFF798FF00F01F050B
:10098C00052D04F1FF33F4D1FFF790FF0028FBD0C5
:10099C00A5F10500B0FA80F04009F8BD0025A5F1DD
:1009AC000500B0FA80F04009F7E700BF00300140C5
:1009BC00F0B5012283B010212248234E04F0C6FC6E
:1009CC000A24FF250221204805F054FD0128F9D105
:1009DC00013CB581F6D1224610211A481A4F04F079
:1009EC00B5FC40244FF415430094ADF804306D462B
:1009FC000DF105060221144805F03CFD0128F9D142
:100A0C00A4B2B542BC8102D015F8014FF2E74FF405
:100A1C00005401E0013C03D0FFF748FF0128F9D155
:100A2C00012210210748084C04F090FC02210648D2
:100A3C0005F020FD0128F9D1044BFF22A28118708A
:100A4C0003B0F0BD0008014000300140A8040020B4
:100A5C002DE9F0412C4E05460C4602212A4805F0A2
:100A6C0009FD0128F9D1ABB2DFF89C80B381260EC9
:100A7C000221254805F0FEFC0128F9D1B6B2224F1F
:100A8C00A8F80C60C4F3074602211F4805F0F2FCDD
:100A9C000128F9D1B6B2DFF87080BE81C4F3072605
:100AAC000221194805F0E6FC0128F9D1B6B2164F1F
:100ABC00A8F80C60E4B20221134805F0DBFC012815
:100ACC00F9D1A4B2402DBC8119D0482D0CBF87267A
:100ADC0000260D4C0C48022105F0CCFC0128F9D164
:100AEC004C2DA6810DD00A24FFF7E0FE020604F17E
:100AFC00FF3302D513F0FF04F6D1BDE8F081952643
:100B0C00E7E7FFF7D3FEEEE70030014038B50446C7
:100B1C000D46FFF7E9FEFF2804D129462046BDE823
:100B2C00384095E7FF2038BD70B5124E0A230446B5
:100B3C000D46337003E0337803F0FF00BBB1FFF7D1
:100B4C00B5FEFF28F7D0FE2812D10234FFF7AEFE17
:100B5C0004F8020CFFF7AAFE023D04F8010C04F1A4
:100B6C000204F3D1FFF7A2FEFFF7A0FE012070BD37
:100B7C00002070BD5C19002060B92DE9F041764D64
:100B8C002A7812F0020482B006D02878C0B202B0E3
:100B9C00BDE8F08101207047FFF70AFF22461021C3
:100BAC006E4804F0D3FBFFF79FFEFF280FD06C4C70
:100BBC006A48002601221021667004F0C7FBFFF77B
:100BCC0075FE28782670C0B202B0BDE8F0812146CF
:100BDC004020FFF73DFF0128E9D1624C64232370CC
:100BEC00FFF782FEFF2848D0FFF77EFEFF2800F0BB
:100BFC009E80012605E0FFF777FEFF2836D023788C
:100C0C00ABB1022EF7D1FFF76FFEFF28F7D1002111
:100C1C007720FFF71DFF0128F1D8FFF765FEFF28AD
:100C2C00EDD100216920FFF713FF0028E7D12378CD
:100C3C00002BBCD0FFF758FEFF28B8D14FF4007141
:100C4C005020FFF705FF0028B1D1454B00F1804043
:100C5C0000F58430012210215E7004F077FBFFF761
:100C6C0025FE2B7803F0FE032B708EE7002141202C
:100C7C00FFF7EEFE0028C2D1D9E74FF4D57148201A
:100C8C00FFF7E6FE0128AFD10DF10408464602AF8E
:100C9C00FFF70CFE06F8010BB742F9D19DF80630B0
:100CAC00012B84D19DF80730AA2B80D101E0237849
:100CBC00A3B1FFF719FEFF28F9D100217720FFF728
:100CCC00C7FE0128F3D8FFF70FFEFF28EFD14FF036
:100CDC0080416920FFF7BCFE0028E8D12378002B67
:100CEC003FF465AFFFF700FEFF287FF460AF0021F3
:100CFC007A20FFF7ADFE00287FF459AF0446FFF7CA
:100D0C00D5FD08F804000134042CF8D19DF804300A
:100D1C00124813F0400F124B14BF06240224012278
:100D2C0010215C7004F012FBFFF7C0FD99E7002165
:100D3C007720FFF78DFE01283FF65BAFFFF7D4FD60
:100D4C00FF287FF456AF00216920FFF781FE0128B0
:100D5C003FF64FAF022654E729000020000801405F
:100D6C00A80400205C19002018B9034B1878C0B2F5
:100D7C0070470120704700BF2900002070B508BBE8
:100D8C001C46FBB1284B1B78D8071ED4274B284890
:100D9C005B785B0716460D4658BF560210210022A1
:100DAC0004F0D4FA012C13D0FFF79EFDFF2822D0BB
:100DBC000124012210211E4804F0C8FAFFF776FD29
:100DCC00204670BD0424204670BD0324204670BD0F
:100DDC00FFF78AFDFF28EBD131465120FFF738FE93
:100DEC000028E5D128464FF40071FFF79DFEB0FABC
:100DFC0080F46409DDE731465220FFF729FE002814
:100E0C00D6D101E0013C09D028464FF40071FFF720
:100E1C008BFE05F500750028F4D1012400214C202F
:100E2C00FFF774FEC5E700BF29000020A8040020CE
:100E3C0000080140F8B548BB1C463BB3334B164683
:100E4C001A78D50725D41B78580725D4304F31484C
:100E5C007B780D465A074FF010014FF0000258BF37
:100E6C00760204F073FA012C22D07B789B0716D4FF
:100E7C00FFF73AFDFF282DD001240122102125482F
:100E8C0004F064FAFFF712FD2046F8BD0424204656
:100E9C00F8BD03242046F8BD02242046F8BD0021ED
:100EAC007720FFF733FE21465720FFF72FFEDFE7B1
:100EBC00FFF71AFDFF28DFD131465820FFF7C8FD98
:100ECC000028D9D12846FE21FFF71EFDB0FA80F488
:100EDC006409D2E731465920FFF7BAFD0028CBD17F
:100EEC0001E0013C07D02846FC21FFF70DFD05F57C
:100EFC0000750028F5D1FD210020FFF705FD002825
:100F0C00BAD0003418BF0124B7E700BF2900002075
:100F1C00A804002000080140F0B587B010BB0529DB
:100F2C000C46154613D05B4B1A7812F001021DD1FA
:100F3C001021594804F00AFA0D2C31D8DFE804F0DE
:100F4C005F66423030303030303030474D201378CF
:100F5C00012B0FD02FD3022B04D1504B1B78537085
:100F6C00044600E00424204607B0F0BD03242046CC
:100F7C0007B0F0BD0190FFF71BFD01980446F2E7A6
:100F8C00FFF7B2FCFF280BD100217A20FFF760FDA0
:100F9C0030B92C1DFFF78AFC05F8010BAC42F9D1D6
:100FAC000424012210213C4804F0D0F9FFF77EFC08
:100FBC00204607B0F0BD394B1C78002CD3D01870EC
:100FCC000446D0E74FF400732B800024E9E7FFF7C9
:100FDC008BFCFF2850D00124E3E7FFF785FCFF28AA
:100FEC00F9D100214A20FFF733FD0028F3D1284620
:100FFC001021FFF799FDB0FA80F46409D1E7FFF7EF
:10100C0073FCB0F1FF0418BF0124CAE7FFF76CFCB6
:10101C00FF28E0D100214920FFF71AFD04460028E3
:10102C00D9D1102102A8FFF77FFD0028D3D09DF85D
:10103C0008109DF811309DF810208909012922D043
:10104C009DF80D109DF812709DF80F609DF80E0024
:10105C0092095B0001F00F0103F0060302EB86021C
:10106C0001EBD7118002194400F44060531C034477
:10107C00CA1F93402B6094E700214920FFF7E8FC3E
:10108C000028A8D1B3E7013303EB02239BB29B02E8
:10109C002B6086E72900002000080140A8040020EE
:1010AC00254A136830B4002B44D000F580542468D2
:1010BC009C4210D00024D368002B38D000F580550A
:1010CC002D68AB4221D0002C31D102290CBF00205D
:1010DC00122030BC704741F208035468C3589C423C
:1010EC00E8D141F206031489C35A9C42E2D1002094
:1010FC00D1B94300034402EB830230BC5389B3F5EE
:10110C00807F14BF00201020704741F2080315693E
:10111C00C3589D42D7D141F20603958AC35A9D42CA
:10112C00D1D101200029E4D0102030BC7047002020
:10113C0030BC70470124BEE7AC04002000F580529F
:10114C00304BF0B514681A68944220D0DD68A54283
:10115C0005D052B3002D4CD000273846F0BD41F2DB
:10116C0008061F698659B742F3D141F206069F8AD9
:10117C00865BB742EDD101256A00501903EB800064
:10118C004089002938D1411C89B26F1C2BE041F2F7
:10119C0008065D688659AE42D8D141F206061D8913
:1011AC00865BAE42D2D10025E6E7154601276A00E0
:1011BC00002941F2080C41F2060102EB05064FEA48
:1011CC00860650F80CE030F801C09C5103EB060188
:1011DC004FF00000C1F804E0A1F808C0488114BF2A
:1011EC004FF4807101212A4403EB82033846598164
:1011FC00F0BD02270125DAE70028ADD16F1C4FF4B2
:10120C008071F0E7AC04002030B40468F4B12578A8
:10121C001F2D0BD93A2D19D0234602E03A2A09D0BA
:10122C000B465A781F2A03F10101F7D80022104609
:10123C0030BC70470134A142A5F1300206D1302DEB
:10124C0004D10233036030BC104670474FF0FF32BC
:10125C00104630BC704700BFD8B108B500F58053BC
:10126C001B685BB103F5805212783AB141F206016A
:10127C0041F20402595A825A914201D0092008BD08
:10128C0041F20102985CFFF7C1FA10F00100F5D1B0
:10129C0008BD0920704700BFF8B541F2100301F1F9
:1012AC000904C358002B3BD041F214034FF02E0E0F
:1012BC00C65806F10B0C354614E0AF1BA3F14102E6
:1012CC00092FD2B25BD0192A08D8082F377B8CBFD4
:1012DC00102208223A421CBF2033DBB223700134A7
:1012EC0065450FD015F8013B202BF9D0052BE4D127
:1012FC00AB1B092B18BFE523F0D184F800E0E523E4
:10130C000134EBE7F37A0B72F3690B60727E337E78
:10131C0043EA02238B80F27DB37D43EA0223CB8028
:10132C00002525708E693EB341F21003C3580BB3F0
:10133C00CB69FBB141F224024FF6FF73825A9A42F9
:10134C0018D000F581500768388898B10C460CE02D
:10135C00E369013BAB4205F1010506EB050309D935
:10136C0003F8010C37F8150038B10021FFF794F998
:10137C000028EDD100233370F8BD1E46FAE7192A78
:10138C0084F800E004F10104A8D8377B1022A1E70F
:10139C002DE9F04141F22C0241F20103855804463B
:1013AC002A46C05C21460123FFF758FA28BB41F2BC
:1013BC00040204F58153A05441F218071A68E3594A
:1013CC00AA1A9A4216D241F20302A65C012E11D936
:1013DC0004F58058274408F1010800E03B6898F8B0
:1013EC0000001D44013E2A4601232146FFF736FA30
:1013FC00012EF3D10020BDE8F0810120BDE8F08181
:10140C0070B541F204030446C35C7BB904F5805308
:10141C001B78032B13D041F201030022E05C114630
:10142C00FFF72AFA003018BF012070BDFFF7B0FF9C
:10143C000028FAD104F580531B78032BEBD141F231
:10144C000503E35C012BE6D141F20A03E25A32B107
:10145C0022442346002103F8011B9A42FBD141F29E
:10146C00100141F20C036158E3581A4D41F21C0271
:10147C00C1F30720A25884F8E81184F8E901080C9C
:10148C00090E84F8EB1141F22C06C3F3072184F802
:10149C00EC3184F8ED110132190C1B0E84F8EA01C1
:1014AC0084F8EE1184F8EF3141F20100A2514AF6B2
:1014BC005521094B205CA4F8FE11C4F8E4312560D9
:1014CC0001232146FFF7CAF941F205030022E25439
:1014DC00A1E700BF525261417272416138B541F2CD
:1014EC0004030446C35C0D4613B1FFF751FF88B9E2
:1014FC0041F201020123A05C21462A46FFF7A0F924
:10150C0041F22C03002818BF4FF0FF35E5500CBFFB
:10151C000020012038BD00BF41F2040238B500257F
:10152C00855441F22C034FF0FF3291420446C250D5
:10153C001AD194F8FF1194F8FE314AF6552243EA79
:10154C00012393420ED1D4F836300B4A23F07F435B
:10155C0093420FD0D4F8520020F07F40801A18BF6D
:10156C00012038BD022038BDFFF7B8FF0028E0D0BD
:10157C00032038BD002038BD464154002DE9F04F02
:10158C000746002385B008463B601646FFF73CFE35
:10159C00051EC0F20981DFF86C9309EB85039C6989
:1015AC00002C00F0098104F580583C6098F800305C
:1015BC008BB141F20103E05CFFF728F9C1070AD4B3
:1015CC00002E00F0FD8010F0040000F0EA800A20EC
:1015DC0005B0BDE8F08F41F201030022E8B288F8B3
:1015EC000020E054FFF71CF9C20700F1E1800EB1B6
:1015FC004307ECD441F2010341F20A05E05C6219A5
:10160C000221FFF739F9002840F0CA80635BA3F58B
:10161C000073B3F5606F00F2C38001462046FFF7FC
:10162C007BFF012800F0CE80032800F0B98005462E
:10163C00002840F0E08041F20A02217BE37AA25AB2
:10164C0043EA01239A4240F0D680E17DA27D52EA22
:10165C000122217C08BF626A41F2030741F218069D
:10166C00481E0128E155A25100F2C580667B41F26B
:10167C0002002654002E00F0BE80701E304240F056
:10168C00BA8094F812C0677C580947EA0C2741F2DB
:10169C00080CB7FBF0FE00FB1E7080B224F80C7037
:1016AC00002840F0A88094F814C0E07C94F80EA0B8
:1016BC0050EA0C2094F80FC008BF206A5AEA0C2A92
:1016CC0000F0998002FB01F10EEB0A0C8C44604592
:1016DC00C0F09180A0EB0C00B0FBF6F6002E00F0F1
:1016EC008A8040F6F5704FF6F57E86428CBF4FF03F
:1016FC00020B4FF0010B7645AA44AC4406F10200F4
:10170C0040F2828041F2140141F21C066050A55156
:10171C0004F5815141F22806C1F800A044F806C036
:10172C00002F68D1591E41F2240601EB8000E16ABA
:10173C00B0FBF3F39A42A1515DD394F8312094F8A5
:10174C00303041F2100143EA022341F20C004FF019
:10175C00FF32625041F205012250012B4FF0800202
:10176C00625400F098804FF0030BB9F81C30D9F894
:10177C00002088F800B0013341F206019BB294427C
:10178C00A9F81C30635204BF0023C9F80030D9F803
:10179C000C309C424FF0000003D1C9F80C0000E063
:1017AC00012005B0BDE8F08F0B2005B0BDE8F08F2F
:1017BC00032005B0BDE8F08F0C2005B0BDE8F08F1C
:1017CC003046EEE76E46314604F5E37304F206202C
:1017DC0013F8042C02B11A6841F8042B103383421D
:1017EC00F6D106F1100756F8045B35B90220BE425B
:1017FC00F9D10328D4D00D20D3E729462046FFF792
:10180C008BFE0028F3D116E741F2140641F21C0EB0
:10181C00A05144F80E5004F5815641F2280EC6F83A
:10182C0000A044F80EC0002FE5D041F2240551442D
:10183C00BBF1020F615103F1FF3519D000F001012A
:10184C00294400EB400001EB5001B1FBF3F39A4249
:10185C00D1D341F210024FF0FF3341F20C01A350EF
:10186C0041F2050263508023A3544FF0010B7CE737
:10187C0005EB4001B1FBF3F39342BCD841F21002EB
:10188C004FF0FF3341F20C01A35041F205026350BB
:10189C008023A35469E741F22C03691CE358994255
:1018AC0028D194F8FF2194F8FE3141F2050143EA66
:1018BC0002234AF655220020934260547FF453AF22
:1018CC000F4B22689A427FF44EAF03F1FF5303F59E
:1018DC000053D4F8E42120339A427FF444AF41F210
:1018EC001002D4F8E811A15041F20C03D4F8EC2109
:1018FC00E25038E72046FFF7F1FD0028D1D032E75F
:10190C0052526141AC0400202DE9F84300F580539C
:10191C0004461B78022B0E4651D0032B2CD0012BE6
:10192C0002D00120BDE8F88300F5815941F22C0862
:10193C0041F20A07D9F8003050F808E030F807C037
:10194C0001EB5105B5FBFCF2D11871455BD16F1C55
:10195C000CFB1252B7FBFCF0C1187145A55C5ED1B3
:10196C000CFB1070F307205C45EA00204CBF00090B
:10197C00C0F30B00BDE8F88300F5815341F20A0572
:10198C0041F22C011F68425B43589108B6FBF1F100
:10199C003944994232D1B600B6FBF2F302FB13661E
:1019AC00A319A25D9878D9785B78000440EA0160AD
:1019BC00104340EA032020F07040BDE8F88300F5A6
:1019CC00815341F20A0541F22C011F68425B4358D6
:1019DC005108B6FBF1F13944994203D0FFF77EFD73
:1019EC0040BB625B7600B6FBF2F302FB1366A319F5
:1019FC00A05D5B7840EA0320BDE8F883FFF76EFD3D
:101A0C00C0B9625BC7E7FFF769FD98B934F807C046
:101A1C00D9F8003054F808E0B5FBFCF297E7204603
:101A2C00FFF75CFD30B941F20A0334F803C0B7FB91
:101A3C00FCF095E74FF0FF30BDE8F88341F2080366
:101A4C0041F20602C358012B2DE9F04105468152A3
:101A5C002CD000F5805641F21402306882589A421C
:101A6C0024D90C462BB341F20A0141F20207415A28
:101A7C00C75D490907FB01F7BC4248D3012B15D9B7
:101A8C009A4213D941F2140801E0A7423FD81946F3
:101A9C00FFF73AFF421C0346A4EB070449D0012888
:101AAC0004D9306850F808209A42EED80220BDE8DC
:101ABC00F08100F580510978032921D041F2080208
:101ACC00825AA242F2D941F22402875841F20C0206
:101ADC00AB50002FEAD0316841F20A0341F21406F0
:101AEC00CB5A5B09B4FBF3F203FB124441F2100333
:101AFC0001EB44143A44AC510020EA50BDE8F081AB
:101B0C0041F2240141580029D8D00B46ABE7023AE8
:101B1C00991E914204D341F20C020220AB50C6E74D
:101B2C0041F2020741F22802C75D825801FB0727E8
:101B3C00CCE70120BBE700BF2DE9F04700F580534F
:101B4C0004461B78022B0D46164672D0032B45D04B
:101B5C00012B02D00220BDE8F08700F5815A41F23A
:101B6C002C0941F20A08DAF8001050F809E030F8B4
:101B7C0008C005EB5507B7FBFCF2531873457FD132
:101B8C00E8070CFB127207F10107B7FBFCF31944D1
:101B9C0040F18C80A05C00F00F0041F2040540EA9B
:101BAC000610A0548E454FF00102625500F08E8055
:101BBC002046FFF793FC0028CDD141F20A03E25AEC
:101BCC00B7FBF2F302FB1373C6F3071241F20401E5
:101BDC000125E25465540020BDE8F08700F58153DF
:101BEC0041F20A0741F22C01D3F800C0C25B435802
:101BFC009108B5FBF1F16144994250D1AD00B5FBB0
:101C0C00F2F302FB1355611941F20407CB781B0662
:101C1C0003F0704343EA0602C2F307236255100C2B
:101C2C004B70120E01238870CA70E3550020BDE87A
:101C3C00F08700F5815341F20A0741F22C01D3F8E9
:101C4C0000C0C25B43585108B5FBF1F161449942A5
:101C5C0005D0FFF743FC00287FF47DAFE25B6D00FD
:101C6C00B5FBF2F302FB1355611941F20403C6F301
:101C7C000720012266554870E2540020BDE8F08729
:101C8C001946FFF72BFC00287FF465AF34F808C029
:101C9C00DAF8001054F809E0B7FBFCF270E7FFF734
:101CAC001DFC00287FF457AFE25BA7E741F204006C
:101CBC0001258E45A65425540BD10CFB1373E25C05
:101CCC00C6F3032622F00F0232437FE70CFB13739B
:101CDC007AE72046FFF702FC00287FF43CAF41F284
:101CEC000A03E35AB7FBF3F203FB1273E7E700BFF7
:101CFC002DE9F0410646884631BB41F20C0241F217
:101D0C0014038558C35895BB012506F58057143725
:101D1C002C460FE0012D2ED9022B11D9022421467D
:101D2C00FFF7F2FD58B3411C37D0012808D0A5426B
:101D3C0021D03B6801349C423046EBD2012CEED8CA
:101D4C0001242046BDE8F0810129F9D941F214059E
:101D5C0043599942F4D2FFF7D7FD01280446EFD935
:101D6C0001301AD07359A342EBD84546CDE79D42BA
:101D7C0028BF0125C9E700242046BDE8F08141F2C7
:101D8C0014057359A342DBD96FF0704221463046DB
:101D9C00FFF7D2FE30B10128D2D14FF0FF342046EC
:101DAC00BDE8F081B8F1000F0CD0B8F1010FC7D924
:101DBC0073599845C4D2414622463046FFF7BCFEC3
:101DCC000028E8D141F2100141F20C027358B450D2
:101DDC005A1CB6D041F20500013B325C735042F004
:101DEC0001033354ADE700BF2DE9F84F41F2060370
:101DFC00C45A0134A3B2002B64D041F2100C50F839
:101E0C000C20002A5ED000F58057054641F20A03EB
:101E1C003868C35A5B09B4FBF3FE03FB1E430E4642
:101E2C00002B3FD141F20C010132695845F80C20CE
:101E3C00002942D041F20202825C013A12EA0E08F9
:101E4C0030D1012941D941F2140950F80930994295
:101E5C003BD2FFF759FD0128824636D9B0F1FF3F3E
:101E6C0038D0386850F80930534535D9AAF1020BEF
:101E7C0041F20C02023B9B4545F802A07ED241F296
:101E8C00020241F22803825CC3580BFB023241F27E
:101E9C000A0341F21001C35A6A505B09B4FBF3F216
:101EAC0003FB124341F2140141F2060200EB431012
:101EBC006850AC520020BDE8F88F41F20802825AFB
:101ECC00A242EFD80420BDE8F88F0220FBE7FFF711
:101EDC005FFAB0B10120F6E7002EF3D041F20C030B
:101EEC00E958FFF705FF8246002849D00128ECD0BD
:101EFC00B0F1FF3FEED0386841F20403C35C002B15
:101F0C00E5D13B6841F20A029A5A2AB11A440021DF
:101F1C0003F8011B9342FBD13A6841F21403AAF176
:101F2C00020BD358023B9B4538BF41F2280341F2C8
:101F3C00020138BFD358505C41F22C0134BF0BFB6B
:101F4C00003300235350E8B10E4641F2040907E078
:101F5C003A68935912F80C0001334045935111D94A
:101F6C004FF0010302F809301046FFF711FA08F19F
:101F7C00010841F2020C0028EAD0ABE7002286E708
:101F8C000720A0E741F22C013868535841F214069F
:101F9C00A3EB0803535083596AE700BF41F20602D2
:101FAC0041F224032DE9F047C15A855A4FF6FF73CD
:101FBC00994208BF29460446FFF740FD8046A8BB5E
:101FCC0004F58056B14609F11409103604F5805A0F
:101FDC0041F22C07DAF800003168C359994202D05B
:101FEC00FFF77CFAE8B9D9F80030002103F12002A0
:101FFC0003F8011B9342FBD1D9F80030E5221A708B
:10200C00DAF8002041F204030121D15441F2060315
:10201C00E35AAB420AD200212046FFF7E5FE002826
:10202C00D8D00428804608BF4FF002084046BDE8CF
:10203C00F08700BF2DE9F04F41F2240300F58057E3
:10204C00B9464FF6FF724FF0FF0B87B00646C252EF
:10205C00103709F1140900F5805A5C4641F22C083E
:10206C000CE00F2838D041F224034FF6FF72F252E5
:10207C00FF2400213046FFF7B7FE50BBDAF8000012
:10208C00396850F80830994202D0FFF727FA00BBA4
:10209C00D9F80030197800294AD0E529E3D0DA7A4A
:1020AC00150702F03F00DCD40F2815D054B341F2D1
:1020BC001802B258D07AC007D5D402F10B0401E053
:1020CC0013F8011F12F8010B8842CCD1A242F7D1B0
:1020DC00002007B0BDE8F08F06F581521268002A87
:1020EC00C7D0480620D541F2060441F22400345BE7
:1020FC0093F80DB0345201F0BF04597B59451BD0F5
:10210C00FF24B6E7184603F10A058C4601E010F8E7
:10211C0001CFE20142EA54045CFA84F48542E4B251
:10212C00F5D15C45C3D1D3E7A142E6D0FF24A0E7AB
:10213C00042007B0BDE8F08F1878059420F040001B
:10214C00013800EB400500EB85050121CDF804B00A
:10215C000296039708469346204CCDF810901E46E5
:10216C002F4608E04FF6FF73994230D11C4BA34227
:10217C0018D014F8011F7518715C6D7841EA0521AF
:10218C000028EFD00846FEF7ABFAFE2F814607F188
:10219C0001051CD83BF81700FEF7A2FA814516D1B1
:1021AC002F46E3E733465A461B78059CDDF804B00E
:1021BC00DDF810905D063946DDE9026704D518B1EB
:1021CC0032F81130002B9BD1013CE4B251E7DDE930
:1021DC0001B6DDE90379FF244BE700BFA4730008C7
:1021EC00B07300082DE9F04F41F2180300F581524D
:1021FC008BB050F803A0D2F80080019205460AF18A
:10220C000C04534607A913F8012B01F8012BA34228
:10221C00F9D19DF827300093DC077CD5019ABC4E90
:10222C0000238AF80B304FF0010B13600AF1FF39D1
:10223C000AF10A074B46544607AA12F8011B03F889
:10224C00011F9F42F9D1BBF1050F59D9A8F1020C1E
:10225C005B463CF8022F7AB1102102F0010000EB32
:10226C004303D80348BF734001394FEA5202F4D1FB
:10227C003CF8022F002AEFD10DF11B0C072203F0C2
:10228C000F0000F13001392988BF00F137011B091B
:10229C0002F1FF320CF80119F1D10AA911447E2088
:1022AC0001F8140C002A00F0C5809AF800102029BF
:1022BC0004D106E014F8011F202902D001339A4200
:1022CC00F8D1591E51440AA81044072A03F10103FE
:1022DC0096BF10F8140C20200132072B01F8010FC7
:1022EC00F1D900212846FFF7A9FB58B92846FFF77A
:1022FC00A1FE38B90BF1010BBBF1640F9AD194E03C
:10230C005B46B9E7042804466FD1009B8AF80B3072
:10231C00019BC3F80080009B9B076AD400212846D0
:10232C00FFF78CFB4FF00108044600287BD105F524
:10233C008057BB460BF1140B1037814605F58056C0
:10234C0041F22C0A08E0BBB14FF0000901212846EC
:10235C00FFF74AFD00286FD130683B6850F80A201F
:10236C009342194603D0FFF7B9F8002864D1DBF883
:10237C0000301B78E52BE6D109F10109C845E5D100
:10238C00B8F10103009362D1306841F22C0341F2A1
:10239C001002C358A958994250D141F2140300219C
:1023AC00EB5803F1200203F8011B9342FBD141F2DD
:1023BC00180341F21402EB58AA5803F10B00013A2E
:1023CC0013F8011B02F8011F8342F9D141F21803E3
:1023DC0041F21402EB58AA58DB7A03F0180313737A
:1023EC00326841F204030121D15420460BB0BDE800
:1023FC00F08FB8F80030002B90D0002300E00B4693
:10240C0038F8022F591C002AF9D1424A03F11A0854
:10241C0000212846A2FB0838FFF710FB4FEA98086A
:10242C000446002883D0042CDFD1072420460BB0AF
:10243C00BDE8F08F134644E70446F4E7FFF74EF887
:10244C000028AAD0044620460BB0BDE8F08F41F21C
:10245C0006032846E95A009BC91AFFF7EFFA002831
:10246C00F0D141F218030246E95801F10B00D301F7
:10247C0011F801CB43EA52035CFA83F38142DAB2DE
:10248C00F5D1CDE902243068396841F22C03C358E8
:10249C00994203D0FFF722F80028D3D19DF800A071
:1024AC00DBF80040019B0AF1FF3202EB42010020F5
:1024BC0002EB810E4FF00F0C029AD3F800802073C0
:1024CC00034601466273A076E07684F80BC00120C7
:1024DC004FF6FF7972464B451ABF38F8123002F1AD
:1024EC00010E964604EB000C1A0A235401318CF8A9
:1024FC00012033B90C2918D8074BC85C4FF6FF7371
:10250C00F0E70C290AD804487246405CE3E700BFA8
:10251C00211001004FECC44EA47300084FF6FF725B
:10252C00934202D038F81E300BB94AF0400A84F8B6
:10253C0000A0326841F204030121D1542846002145
:10254C00FFF752FC00287FF47DAF009B013B00930A
:10255C0099D1039C18E700BF2DE9F04100F5805795
:10256C00B84614373B680C4606469C4208F11008E6
:10257C002146304625D2012C26D9FFF7C5F9214634
:10258C0005460022E8B1012D30461DD06B1C1ED033
:10259C003B689C4218D2FFF7CFFA41F20502A0B972
:1025AC00D8F80030591C013305D0C8F80010B35CC2
:1025BC0043F00103B3543B682C469C422146304601
:1025CC00D9D30020BDE8F0810220BDE8F0810120C4
:1025DC00BDE8F0812DE9F04F00F580552E464FF007
:1025EC00FF0B044600F5805883B0103514365F4657
:1025FC00042006E0FF2700212046FFF7F5FB00280A
:10260C005DD12968002961D0D8F8000041F22C0373
:10261C00C3588B4203D0FEF761FF00284FD13368BB
:10262C001A78002A4AD0E52AE4D02E2AE2D0D97AA8
:10263C0001F03F0121F020000828DBD00F2958D1F0
:10264C00510638D541F2060041F22401205A93F884
:10265C000DB0605202F0BF075A7B5A45CAD11878A8
:10266C00DFF8BCC0019704F5815200F03F0001383F
:10267C001268009200EB4001012200EB81000CF18A
:10268C000C094FF6FF7A1746DDF800E009E0FE284A
:10269C00B0D82EF8102017460130CC451CD01CF8B1
:1026AC00012F99189A5C497842EA0122002FEED149
:1026BC005245F2D09EE7BA429CD1CDE7042041F2BC
:1026CC0010030022E25003B0BDE8F08F0028F6D1D1
:1026DC00002003B0BDE8F08F1B78019F5B0605D589
:1026EC00FE2887D8009A002322F81030013FFFB251
:1026FC0081E77FB903F10A00114601E013F8011FCD
:10270C00FA0142EA570251FA82F29842D7B2F5D155
:10271C005F45DDD041F224034FF6FF72E252D7E75A
:10272C00A47300082DE9F04F0B782F2B85B00D46C4
:10273C0082464AD05C2B48D041F2080300244AF868
:10274C00034028781F2840F233810AF58153009307
:10275C0001E015F8010F2F28FBD05C28F9D080B2CE
:10276C00009B1F28D3F800902BD92F2829D05C2848
:10277C0027D0A9F10207B8462E46012410E028F80C
:10278C00020F16F8010F1F2804F1010340F20C810F
:10279C002F281CD05C281AD0B3F5807F11D01C4692
:1027AC000121FDF779FF60B17F28E8D8222808D0F5
:1027BC00924A2A2303E012F8013F002BDFD0984203
:1027CC00F9D1062005B0BDE8F08F0135B4E71D4402
:1027DC004FF0000809EB440232F8023D202B01D0E7
:1027EC002E2B02D1013CF7D1EBE741F2180B002262
:1027FC005AF80B3029F814200AEB0B02019203F162
:10280C000B0009EB4402202103F8011B9842FBD179
:10281C00002600E0013637F8020F2028FAD02E28C7
:10282C00F8D00EB148F00308134633F8022D2E2AC7
:10283C0001D0013CF9D100231F460822013658B3C0
:10284C00202800F086802E2800F0888093421BD22E
:10285C00B44200F085807F2800F28D802B2800F098
:10286C009B80DFF8A0C12C21814200F095801CF8E0
:10287C00011F0029F8D1A0F14101192900F2A38010
:10288C0047F00207C0B28AE00B2A00F0AA80B442DB
:10289C0068D048F0030865D25AF80B301978E5294E
:1028AC0003D1052119705AF80B30082A04BFBF0058
:1028BC00FFB207F00C020C2A5AD007F00307032FC3
:1028CC0056D018F0020F07D1012F08BF48F010089E
:1028DC00042A08BF48F0080883F80B8000215046F2
:1028EC00FFF7ACF840BB5046FFF7A4FB5AF80B308F
:1028FC00DB7A30BB59073FF565AF41F214035AF848
:10290C000330DA7AD20668D50AF58051D87E096888
:10291C009A7E01F5805142EA00220978032905D1FB
:10292C00597D1B7D43EA012342EA034241F208032D
:10293C004AF8032028780EE741F218035AF80330BE
:10294C00DB7A04287FF43EAF13F0040F08BF052098
:10295C0038E748F0030839F816006FE7B442F8D1AD
:10296C000B2A3ED0BF00FFB226460B220823F2E70B
:10297C0048F00208B0E70021CDE90232FDF78CFEE9
:10298C0048F00208DDE9023230B11D49084410F864
:10299C00700C00287FF462AF48F003085F200199A7
:1029AC000968C8540133D6E71D444FF0040811E7F9
:1029BC0021465046FFF742F841F214034AF803400F
:1029CC0005B0BDE8F08FA0F16101192997BF20383F
:1029DC00C0B2C0B247F00107E1E7052005B0BDE881
:1029EC00F08F5AF80B301A78E52A48F003087FF478
:1029FC0060AF05221A705AF80B305AE76D74000854
:102A0C00A47300087974000841F214030239C35806
:102A1C00023B8B4208D941F2280241F20203C35C0B
:102A2C00805801FB030070470020704701290DD925
:102A3C0010B441F2140402598A4203D95DF8044BD4
:102A4C00FEF762BF01205DF8044B70470120704710
:102A5C0001290BD930B441F2140544598C4202D9E6
:102A6C0030BCFFF769B8022030BC704702207047B9
:102A7C0010B584B004AB019043F8041D18460091C6
:102A8C001446FEF7C1FB002823DB174B80001A18F5
:102A9C00926972B119688A4204BF00211960D96821
:102AAC008A4208BF002102F5805208BFD96000217C
:102ABC001170019A034442B102F580510020012C9F
:102ACC009A61087008D004B010BD10469A6104B029
:102ADC0010BD0B2004B010BD0246694601A8FEF7DC
:102AEC004DFD04B010BD00BFAC0400202DE9F04F2B
:102AFC00ADF5825D81B0019100284AD000F5805778
:102B0C00002304460DF5805016463B60183002F049
:102B1C001E0201A9FEF732FD054628B128460DF527
:102B2C00825D01B0BDE8F08F06AB03F581539D4883
:102B3C00186041F2180206A803AB01998350FFF705
:102B4C00F1FD06F01F09034606F01C0A40BB41F2DA
:102B5C00140306AA52F80380B8F1000F33D019F011
:102B6C001E0F14BF4FF0010B4FF0000B59461046CF
:102B7C00FEF796FA0346BAF1000F00F0FB80A0B9FD
:102B8C0098F80B3013F0110F1BD170071DD50825C9
:102B9C00C4E7092528460DF5825D01B0BDE8F08F2C
:102BAC00BAF1000F01D10546B8E7042B40F0F880CC
:102BBC007D4B1A68002A61D0DB68002B5ED0122591
:102BCC00ACE70725AAE70625A8E7310762D40DF57F
:102BDC00805318331B6841F22C0141F21C025B58E4
:102BEC00A35004F581535946C3F8008006A8FEF79C
:102BFC00A5FA41F22803E05000283DD00DF5805392
:102C0C00183341F206011A6804F8019041F20703E7
:102C1C000021E15402F5805198F81B00097898F8CE
:102C2C001A30032943EA002307D198F8150098F8C5
:102C3C00141041EA002143EA014341F2100141F230
:102C4C000600635041F20C03D8F81C10105AE150E6
:102C5C0041F2080641F218010023A351635041F2DE
:102C6C00240641F20401A3513A60605228460DF546
:102C7C00825D01B0BDE8F08F02254FE706A8FFF793
:102C8C00B1FA41F2140306AA49F0080952F803807C
:102C9C00002888D1FDF7FEFD002388F80B3088F85A
:102CAC001C3088F81D3088F81E3088F81F300DF560
:102CBC008053C0F30726020E010C183388F80F60FE
:102CCC0088F8112088F80E0088F810101B6898F806
:102CDC001B2098F81A6003F5805346EA02261B78ED
:102CEC00032B07D198F8152098F8143043EA0223E7
:102CFC0046EA0346002388F81A3088F81B3088F817
:102D0C00143088F815300DF58053183341F2040255
:102D1C001B680121995446B38E42ADD041F2140286
:102D2C009A589642A8D241F22C0B1846314653F8C9
:102D3C000BA0FFF711FC00287FF435AF0DF5805385
:102D4C00183341F20C011B6853F80B20013E9245DD
:102D5C005E500AD051461846FEF7C0FB00287FF49F
:102D6C0022AF0DF5805318331B6849F020094FF042
:102D7C00010B30E700287FF416AF98F80B30DA0619
:102D8C000CD4B00702D5D9073FF51BAF0DF5805316
:102D9C00183332071B687FF51EAFE6E70425BDE646
:102DAC001D46BBE6CC040020AC0400202DE9F04FFE
:102DBC009846002385B0C8F800308946144605466D
:102DCC00FEF74AFA0646002868D141F20703EB5C8D
:102DDC00002B67D141F20603EB5CD80740F1E2808F
:102DEC0041F2080241F20C03AA58EF58BF1AA7424D
:102DFC0028BF2746002F51D005F5805319461833AC
:102E0C00019301F10803039602930E4641F20A0363
:102E1C003068C15AB2FBF1F401FB1423002B46D1EC
:102E2C0041F20203C35C03F1FF3B0BEA040B1BF002
:102E3C00FF0B5DD041F21403EC5841F21403023C39
:102E4C00C358023B9C4280F0A88041F2020341F23D
:102E5C002802C35C825803FB0424002C00F09D80E4
:102E6C0041F20A025C44815AB7FBF1FABAF1000F45
:102E7C004CD00BEB0A02934241F2010238BFA3EB98
:102E8C000B0A805C534622464946FDF7D9FC0028C4
:102E9C0000F08A8041F207030126EE54304605B05B
:102EAC00BDE8F08F1E46304605B0BDE8F08F0298A5
:102EBC00C91AB94228BF39462B44002900F09D801D
:102ECC0009F1FF3203EB010C13F8014B02F8014F2F
:102EDC006345F9D1026889447F1AD8F800300A4456
:102EEC0019440260C8F80010002F8FD1039ED5E75B
:102EFC00002A3ED141F21003EC58012C4DD9611C33
:102F0C00C8D041F214033068EC5096E7019B1A6864
:102F1C00944223D041F2060A41F2010B15F80A3013
:102F2C0010F80B005B060ED501232946FDF796FC25
:102F3C000028AFD115F80A3023F0400305F80A3009
:102F4C00336813F80B00012322462946FDF778FC61
:102F5C0000289FD1326841F20A03D15A019B1C60B0
:102F6C0041F20803E818EA58B2FBF1F301FB132312
:102F7C009EE741F22402AA58002A40D0B4FBF3F495
:102F8C00536804324BB19C4202D244E0A34242D873
:102F9C00E41A52F8083F002BF8D141F2070302263D
:102FAC00EE547BE7072679E741F2060341F20A0269
:102FBC003168EB5C895A5A0616D5019B1B681C1BA1
:102FCC00A24511D901FB04F42A4669B1013C09EB75
:102FDC000403294412F8010B03F8010F8A42F9D1BA
:102FEC00326841F20A03D15A41F2080301FB0AF19B
:102FFC0089447F1AE818EA586FE7026006E741F245
:10300C001403E9580129C8D9C3589942C5D2FEF70F
:10301C007BFC044671E753681C446EE72DE9F04FC6
:10302C001E46002385B03360894690460546FEF760
:10303C0013F98346002840F0858041F20703EB5CCE
:10304C00002B40F0838041F20602AB5C990740F103
:10305C00FF8041F2080155F801C018EB0C0F80F00D
:10306C00A980B8F1000F00F0A58005F58053063358
:10307C00AA18029305F580530192009361460390C0
:10308C00B346009B186841F20A03C25AB1FBF2F432
:10309C0002FB1413002B5ED141F20203C35C5F1ED2
:1030AC00274017F0FF0717D1002940F0BB8041F2F1
:1030BC001003EC58002C00F00781012C00F0268145
:1030CC00621C3AD041F2100341F21401EA586C50E0
:1030DC0002B9EC50009B1868019A13785B06924673
:1030EC0000F18C8041F21403EC58C358023C023BB3
:1030FC009C4280F00B8141F2020341F22802C35C36
:10310C00825803FB0424002C00F0008141F20A02D7
:10311C003C44825AB8FBF2F6002E58D0BA199342AE
:10312C0041F2010238BFDE1B805C33462246494621
:10313C00FDF794FB002800F08E8041F2070201237A
:10314C00AB549B46584605B0BDE8F08F9B4658469D
:10315C0005B0BDE8F08F05F58057DDF808A00837FD
:10316C00D61A464528BF4646002E00F08880013B03
:10317C002B4409EB060019F8012B03F8012F8145AC
:10318C00F9D139689AF8003043F040038AF80030DE
:10319C00DBF8003031443344B8EB06083960814623
:1031AC00CBF800307FF46DAF41F20603DDF80CB0C4
:1031BC00EB5C8C4641F20C0243F02003A9586145AC
:1031CC0038BF45F802C041F20602AB54BAE741F2EF
:1031DC00180641F20801AB59695805F580579C4215
:1031EC0007F1080704D041F20C03EB588B4248D886
:1031FC00B1FBF2F3AC5102FB1313B1E741F2010343
:10320C0041F21802C05CAA5801232946FDF726FB9F
:10321C00002892D1019A137823F040031370009B7D
:10322C0018685FE741F22402AA58002A51D0B4FB77
:10323C00F3F453680432002BB6D09C4202D234E033
:10324C00A34232D8E41A52F8083F002BF8D1ABE76E
:10325C004FF0070B76E741F21803009AEB58116810
:10326C001C1B41F20A02A6428A5A39D841F20803C1
:10327C0002FB06F609EB0600EF18E95888E748460A
:10328C0080E741F201020123805C29462246FDF7CA
:10329C00D7FA00287FF451AF41F20802009BA958DD
:1032AC001B6841F20A029A5AA2E753681C44002C8C
:1032BC007FF403AF41F2080241F20603DDF80CB0D3
:1032CC0055F802C0EB5C75E73946FEF711FD044674
:1032DC00EDE741F21403E958FEF70AFD0446E6E770
:1032EC0002FB049362B11A44691E13F8010B01F836
:1032FC00010F9342F9D1009B1A6841F20A03D25A8A
:10330C0001990B7823F040030B70AFE741F20702F1
:10331C000223AB549B4615E770B50A2982B00E46C2
:10332C0005461AD06C68002C08DB2B1901343C2C98
:10333C001E7305DCAB686C600133AB6002B070BD12
:10334C0001AB224605F10C012868FFF767FE019BD3
:10335C001C1B18BF4FF0FF34ECE70D21FFF7DCFF0F
:10336C00E0E700BF70B50446FDF776FF002851D1A9
:10337C0041F20605635D9A064CD504F580565B0652
:10338C00306848D441F21C0241F22C03A158C358B6
:10339C00994203D0FEF7A2F800283BD104F58152E4
:1033AC0041F20C031568EA7A42F02002EA72E25804
:1033BC002A77E25A120A6A77E258120CAA77E35873
:1033CC0041F210021B0EEB77A358AB761A0C110AC4
:1033DC00C3F30723EB762A756975FDF75BFAC0F327
:1033EC000723020CA875EB752A76002341F206021E
:1033FC00000E6876AB74EB74A35C23F02003A3542B
:10340C0041F2040330680122C254BDE87040FDF75C
:10341C00F7BF012070BD41F2010341F21802C05CFC
:10342C00A25801232146FDF719FA0028F1D1635D5A
:10343C0023F0400363553068A4E700BF70B5044621
:10344C00FFF790FF00B170BD2046FDF705FF002887
:10345C00F9D141F22803E358013B012B12D85A0051
:10346C000D4ED11806EB81014D89B5F5807F11D039
:10347C0055B913449B000022F25004F580540023EC
:10348C00236070BD022070BD013DADB24D81002D99
:10349C00F3D1EEE74881ECE7AC0400202DE9F04FC6
:1034AC0083B00E460546FDF7D7FE044600287CD1B6
:1034BC0041F20703EB5C002B7BD141F22403EA5869
:1034CC00002A00F0B080711C78D041F20C0141F25E
:1034DC00080369588E4228BF0E46EE50002E64D069
:1034EC0005F5805741F20A01D7F800C053683CF843
:1034FC00018041F20201701E1CF801E0B0FBF8F0F3
:10350C000432B0FBFEF153B1994203D211E18B426C
:10351C0000F20F81C91A52F8083F002BF7D16FF057
:10352C00010941F214015CF801206B50931E4B45CC
:10353C0074D941F228035CF8033009FB0E33002BDD
:10354C006CD0B6FBF8F208FB126676B341F21802A7
:10355C000EF1FF3E0EEA0000AA58C618B24224D063
:10356C0041F2060841F2010915F808301CF809006F
:10357C005B060FD501232946FDF770F9002840F0B2
:10358C00DD8015F8083023F0400305F808303B685F
:10359C0013F80900012332462946FDF751F900289A
:1035AC0040F0CC8041F21803EE50204603B0BDE849
:1035BC00F08F1C46204603B0BDE8F08F41F210039B
:1035CC00111DEE58136801910093002E00F0A58098
:1035DC0005F580574FF00208D7F800C041F2140BE4
:1035EC00B2464FF0000912E05CF80B309A4515D248
:1035FC00FEF78AF901280AF1010182460ED9421C14
:10360C0000F09C808142D7F800C040F02B81BAF1C9
:10361C00010F5146604609F10109E5D841F2070353
:10362C000224EC54C1E741F20C03EB58B34206D22E
:10363C0041F20602AA5C12F0020F08BF1E4641F2CC
:10364C0008030022E958EA50002EAED005F5805749
:10365C0041F20202386841F20A0C825C30F80C909C
:10366C0009FB02F900296ED00139721EB1FBF9FC7D
:10367C00B2FBF9F2624566D3C9F1000241F2140CB7
:10368C001140E95055F80C80761AB8F1000F66D14C
:10369C0041F2080241F20A03A958C25AB1FBF2F3F3
:1036AC0002FB1313002B00F0C88041F21803EA58F8
:1036BC00424500F0C28041F2060641F20109AB5DC1
:1036CC0010F809005B060BD501232946FDF7C6F857
:1036DC00A0BBAB5D23F04003AB553B6813F809006E
:1036EC00012342462946FDF7ABF838BB41F21801DD
:1036FC0041F2080241F20C0345F80180EB58A9583D
:10370C0099427FF652AF41F2060241F20C00AB5CDB
:10371C00295043F02003AB5447E74FF00208009BBD
:10372C00C2F80080984500F28C80019A0023136047
:10373C003BE753680B44A3F10209F2E641F207039D
:10374C000124EC5431E741F2100A55F80A80B8F123
:10375C00000F78D041F2140345F8038095E74E45ED
:10376C0040F2978005F5805341F2140B063305EBBC
:10377C000B0241F2080A26E0B8F1010F7FF64EAFBA
:10378C0050F80B108845BFF449AF4146CDE90032E3
:10379C00FEF7BAF8DDE900328046B8F1FF3FCDD034
:1037AC00B8F1010F7FF63AAF386850F80B1041456D
:1037BC007FF634AF55F80A10C2F800804944B14581
:1037CC0045F80A1013D219788907A6EB0906D3D548
:1037DC004146CDE90032FEF78BFADDE90032804636
:1037EC000028DAD141F208033868E9584E4641F214
:1037FC000A0341F2080CC25AB6FBF2F3314402FB45
:10380C00136645F80C10002E41D041F21406A8F1B5
:10381C0002088659023EB045BFF400AF41F20206E1
:10382C0041F2280C865D50F80CC008FB06C6002E31
:10383C003FF4F4AE03EB060830E741F20C03EB580F
:10384C005EE71124B1E64146FEF752FA01288046A4
:10385C003FF4E4AEB0F1FF3F3FF470AF45F80A001F
:10386C00386877E7009B08F10208434505D3019AB5
:10387C00134643F8089B566001935CF80B30834267
:10388C0006463FF6ADAE41F22403EA5847E7B04690
:10389C0004E741F20803E958A9E700BF70B586B008
:1038AC00019100284DD00546002201A902A8FDF780
:1038BC0065FE05F58056044620B100233360204692
:1038CC0006B070BD0298306041F2180105F58153C5
:1038DC00264A03A8685001991A602846FEF722FF71
:1038EC000446002831D141F21403EB588BB3DA7A39
:1038FC00D2062CD50299DC7E9A7E01F5805042EAE4
:10390C0004220078032805D1587D1B7D43EA00234F
:10391C0042EA034241F20803EA5041F2060241F244
:10392C0004038A5AEA5200212846FEF787F8044617
:10393C0058B941F20803EB586BB941F21C03E8503B
:10394C00BDE70924204606B070BD042CB5D1052472
:10395C00B3E70299E1E701462846FDF7EFFB41F298
:10396C001C03E8500028AAD11224A6E7CC0400209E
:10397C0070B50446FDF770FCC0B941F21C03E35866
:10398C0083B1013B012B12D85A000F4ED11806EB14
:10399C0081014D89B5F5807F0BD05DB1013DADB294
:1039AC004D813DB104F580540023236070BD02208D
:1039BC0070BD488113449B00002204F58054F250E2
:1039CC0000232360F2E700BFAC04002070B584B084
:1039DC000E460546FDF740FC0446C8B9DEB141F27F
:1039EC00180205F5815301A9A950144A1A602846FA
:1039FC00FEF7F0FD04281DD048B931462846FDF7E6
:103A0C004BFC00212846FEF7EFF904280BD00446A6
:103A1C00204604B070BD01462846FEF70FF8044658
:103A2C00204604B070BD41F2100300222046EA503B
:103A3C0004B070BD41F21003EC50DEE7CC04002062
:103A4C0030B5ADF5825D81B00D4601900DF580501D
:103A5C0001A900221830FDF791FD044620B1204643
:103A6C000DF5825D01B030BD06AC41F2180206AB1B
:103A7C0003F5815303A8A05001990B4A1A60204604
:103A8C00FEF750FE04460028E9D141F2140306AAC1
:103A9C00D35833B1002DE2D029461046FDF7FCFB7C
:103AAC00DDE70624DBE700BFCC0400202DE9F04F56
:103ABC0083B002AB144643F8040D894610461946F0
:103ACC000022FDF75BFD0646002848D1256841F22F
:103ADC00140341F21002EC58AA58A11E8A4242D992
:103AEC0005F5805292F80080B8F1010F41D005F530
:103AFC00815303F10C0A196802460346074641F24A
:103B0C000A0B82B9DAF80020914201F1010306D0C8
:103B1C0028460093FDF7E2FC009B00284CD135F8B9
:103B2C000B2019462B46587893F800C0B8F1020FB9
:103B3C004FEA002039D0186830F0704008BF0137C8
:103B4C000433043A013CDCD141F2050241F210018C
:103B5C00AB5C6F5043F00103AB54C9F800703046B6
:103B6C0003B0BDE8F08F3046C9F8002003B0BDE8C3
:103B7C00F08F05EB030A4FF0020807464445414617
:103B8C00284608F101080ED9FDF7BEFE431C15D0DE
:103B9C00012808D000B90137DAF800404445D3D9E0
:103BAC00B8F1010FEAD80226CEE750EA0C0008BFA4
:103BBC0001370233023AC5E70646C5E70126C3E7DB
:103BCC002DE9F0410446FDF747FB054620B941F2CB
:103BDC000703E35C1BB11D462846BDE8F08141F2AA
:103BEC000606A25D91072ED541F2080341F20C01A5
:103BFC00E35860589842EFD942F02002A25504F5E0
:103C0C0080566350306873B141F21407E1590129B1
:103C1C0002D9C359994218D3022541F20703284609
:103C2C00E554BDE8F08141F21007E159012904D9AE
:103C3C0041F21403C358994242D341F210030022BB
:103C4C00E2500225E9E70725C6E7FDF75DFEB0F176
:103C5C00FF3F804632D00128DED03068C3599845EA
:103C6C0016D241F21407E1590129D5D99942D3D280
:103C7C006FF07042FDF760FF30BBB8F1010FCBD98C
:103C8C003068C3599845C7D24146FEF765FCD8B990
:103C9C0041F20607E35D5B069ED5316841F20102F5
:103CAC0041F21803885CE25821460123FCF7D6FD4B
:103CBC0020B9E35D23F04003E3558DE70125ACE724
:103CCC00FEF74AFCE551E2E70546A6E710B5ADF56F
:103CDC00015D8AB00AAB019001A9012203F57F6056
:103CEC00FDF74CFC18B10DF5015D0AB010BD41F2A9
:103CFC00180106AC06AB03A803F5815360503E4A8D
:103D0C0001991A602046FEF70DFD0028EBD1022127
:103D1C0006A8FDF7C5F90028E5D141F2140306AA5F
:103D2C00D358002B4FD0DA7AD10701D50720DAE728
:103D3C000DF580511831D87E09689C7E01F58051B3
:103D4C0044EA0024097803294BD0002C3DD0D3063B
:103D5C0024D506AB03F581500DF582530833A3F13E
:103D6C000902083006AB13F8011B02F8011F83424D
:103D7C00F9D10DF58253083303F580530DF58250BC
:103D8C0002211C60FDF75AFE0028ACD10DF58250C3
:103D9C00FEF720FC0028C9D00428A4D106A8FEF701
:103DAC00FDF800289FD1012C24D00DF58053183339
:103DBC00186841F21403C3589C421BD22146FEF7EB
:103DCC00CBFB38B18FE706208DE706A8FEF7E6F8A7
:103DDC00002888D10DF5805318331868FDF710FBB7
:103DEC0081E7597D1B7D43EA012344EA0344002CFF
:103DFC00EBD0ACE7022076E7CC0400202DE9F04FA5
:103E0C00ADF5825D87B00790FCF744FD04460DF5D7
:103E1C00815007A910300122FDF7B0FB034628B1F1
:103E2C0018460DF5825D07B0BDE8F08F41F218021F
:103E3C0005460CAB0CA803F5815309A981509D4A8A
:103E4C0007991A60FEF76EFC0346002800F0D38039
:103E5C000428E5D10DF58153103329461868FDF778
:103E6C0047FF0546002800F0CD80012800F01181A5
:103E7C000DF581531033D3F800A0431C00F00B81D7
:103E8C0041F204031AF80330002B40F0068141F292
:103E9C001403AA1E5AF80330023B9A4280F0EC80BD
:103EAC0041F2020041F228031AF800005AF80330DC
:103EBC0002FB003241F20A033AF8030030B15044DD
:103ECC005346002603F8016B9842FBD10AF10B060E
:103EDC005346202003F8010B9E42FBD1C4F3074349
:103EEC005FFA85FC00934FEA1549CDF804C0009B9E
:103EFC008AF81830E6B25FFA89F1C4F30727C5F3E4
:103F0C00072C240E019B03964FEA19292E204FF003
:103F1C00100E05948AF816608AF819408AF81A303F
:103F2C0006910497CDF808C08AF814108AF81590F9
:103F3C008AF800008AF80BE08AF817708AF81BC020
:103F4C000AF1200354460AF1400601E014F8010F6F
:103F5C0003F8010B9E42F9D12E238AF821300DF57E
:103F6C0081531033186800F580540DF58153247873
:103F7C001833032C1B6800F08180180CC4B2DEB21D
:103F8C00000AC3F307238AF83B300DF58153103335
:103F9C008AF83A608AF834408AF83500186841F299
:103FAC000203C45C84B3013CE4B20134144441F216
:103FBC002C0841F20407012640F80820C65502F1EE
:103FCC00010BFDF7E5F9002845D10DF581531033B0
:103FDC001A6841F20A03D35A2BB15344514601F8E3
:103FEC00010B9942FBD1A3450ED00DF58153103333
:103FFC005A461868E0E7082318460DF5825D07B0AD
:10400C00BDE8F08F07230BE70CA8FEF7EBF803468F
:10401C0010BB0CA941F214031022CB5803999975CB
:10402C000499D9750099197605995976019999765B
:10403C000299D9760699DA72197583F815900DF5EF
:10404C0081531033186841F204030122C254FDF766
:10405C00D7F90346E4E603460DF581521032106899
:10406C0041F2140282589542BFF4DAAE294600930D
:10407C00FEF772FA009BD3E600221BE741F2240400
:10408C00005998427FF479AF002004460346064657
:10409C0079E70223C4E60123C2E65046FDF778F91E
:1040AC0003460028D8D10DF581531033D3F800A066
:1040BC00EDE600BFCC04002030B5ADF5825D81B0DB
:1040CC000D4601900DF58050144601A901221830BF
:1040DC00FDF754FA18B10DF5825D01B030BD41F217
:1040EC00180206AB06A803A903F581538150114AA7
:1040FC0001991A60FEF716FB0028ECD141F214036B
:10410C0006AAD258A2B1D37A5D402C4004F0270401
:10411C005C400DF580531833D472186841F20403D7
:10412C000122C254FDF76CF90DF5825D01B030BD72
:10413C000620D0E7CC04002010B5ADF5025D10AB25
:10414C00CDE90010012203F57F60A3F13C01FDF7DE
:10415C0015FA10B10DF5025D10BD41F218020CAB51
:10416C000CA803F5815303A981506C4919600DF516
:10417C0081520DF5015310321833126801991A60EF
:10418C00FEF7D0FA0028E5D102210CA8FCF788FF35
:10419C000028DFD141F214030CAAD05800285FD0BC
:1041AC0000F10B030DF11702203013F8011B02F87C
:1041BC00011F8342F9D10CAB03F581500DF58353EC
:1041CC00A3F1090208300CAB13F8011B02F8011F14
:1041DC008342F9D16846FDF717F8002801DA0B2065
:1041EC00B8E70DF5825000991830FEF79BFA0028BD
:1041FC0038D00428AED10DF582501830FDF7F2FFFF
:10420C000028A7D10DF5825141F2140218310DF19D
:10421C001A038C580DF12D0004F10C0213F8011B3C
:10422C0002F8011F8342F9D19DF8183043F02003A6
:10423C00E3720DF5815310331A6841F20403012126
:10424C00D154E37ADB060FD40CA8FDF7A7FE0028A7
:10425C0080D10DF5815310331868FDF7D1F879E74B
:10426C00042077E7082075E70DF583530DF5815190
:10427C0003F5805318311B6809689942E4D002F5A4
:10428C008053E07E1978A37E032943EA002305D1ED
:10429C00607D217D41EA002143EA014341F2140192
:1042AC00023B515802398B4236D241F2020141F2A3
:1042BC002800515C105803FB01036BB341F22C0135
:1042CC0051588B420AD019461046FDF707F90DF5E7
:1042DC00815310331A6800287FF43CAF92F82130D8
:1042EC002E2BB1D10DF5835303F5805341F204000D
:1042FC001B6882F83A30190CC3F3072382F83B3061
:10430C000DF5815382F834101033090A82F83510F8
:10431C001B6801221A5497E702201BE7CC040020EB
:10432C0010B5ADF5825D0C4601900DF5805001A9DC
:10433C0001221830FDF722F910B10DF5825D10BD88
:10434C0041F2180206AB06A803A903F5815381506C
:10435C00124A01991A60FEF7E5F90028EDD141F2F5
:10436C00140306AAD358B3B1E2889A75E288120AEC
:10437C00DA75A2881A76A288120A5A760DF580533D
:10438C001833186841F204030122C254FDF738F8BF
:10439C000DF5825D10BD0620CFE700BFCC040020D8
:1043AC002DE9F04F87B00129039003D9132007B0F2
:1043BC00BDE8F08F03A80C461746FCF725FF002834
:1043CC00C0F2C7813B4B03EB80039E69002E00F0CB
:1043DC00BE8106F580530022C5B21A702846FCF740
:1043EC001FFAC20763D4430700F1B58141F20A08F2
:1043FC0006EB080202212846FCF73EFA002840F0A2
:10440C00A48136F80830A3F50073B3F5606F00F2A1
:10441C009C8105AA01212846FCF72EFA002840F0C1
:10442C00948105997F2940F29081002C40F0B6814F
:10443C003F394FF03F0941F20A027B1E3B42059186
:10444C0036F802C040F08981002F00F08681B7F564
:10445C00007FC0F0B081B7FBFCF7002F40F0AB81C0
:10446C000B46012740F6F57083420CF1FF3200F247
:10447C00988103EB430301335B0803334FF0010ACC
:10448C0013444FF0010B4FF48042B3FBFCF8B2FB2A
:10449C00FCF30093009B0BEB090243441344019281
:1044AC00A7EB09021A448A4206D90E207FE70320A3
:1044BC007DE700BFAC04002004AA03212846029328
:1044CC00FCF7DAF9002840F08781049A511EB1F507
:1044DC00004F80F04382029B524219440A40D31A87
:1044EC00BAF1030F0493059900F099819844009A4E
:1044FC00A1EB0B03A3EB0803BAF1020FA3EB02032E
:10450C00B3FBF7F31A46029300F07E81B1F5803FBE
:10451C002CBF06200120002C40F0608141F20A03E0
:10452C00F25A32B13244334603F8014B9A42FBD172
:10453C00059986F8C20109EB010443F6C163B4FB8B
:10454C00F3F4A00840F03F0086F8C401FE2086F882
:10455C00C3013F2086F8C601C1F3072086F8CB01C2
:10456C00080C0022012386F8CA1186F8CC01090E2A
:10457C004AF6552086F8CD11A6F8FE0186F8C541FD
:10458C0086F8BF3186F8C03186F8C12186F8C7217C
:10459C0086F8C82186F8C921314628460494FCF7D0
:1045AC005DF9002840F0D180F82441F20A03F25A58
:1045BC0032B132443346002103F8011B9A42FBD13D
:1045CC00A64A731E06F10A0012F8011B03F8011F1C
:1045DC009842F9D141F20A03BAF1030FF25A059B42
:1045EC00F272CBF3072014BF022100214FEA122EE6
:1045FC00F0734FF0010C0020B3F5803FB17477736A
:10460C0086F80EB086F80CE0D9B2C3F3072286F810
:10461C0010C0707480F01781F17432754FF0000B7C
:10462C003F22FF233276747586F81C9086F819B0F9
:10463C0086F81BB086F81DB086F81EB086F81FB041
:10464C00B376FCF727F9BAF1030F04905FFA88F1FF
:10465C00C8F3072200F00C81C0F3072E804B86F8BC
:10466C002700B175F275010C2922000E86F828E09E
:10467C004FF0800E86F8262003F1130C86F82910D3
:10468C0086F82A0086F824E006F12A0213F8011BAA
:10469C0002F8011F6345F9D15522AA2386F8FE21A1
:1046AC0086F8FF314A46012331462846FCF7D6F8F6
:1046BC0000284AD141F20A03F35A63B1013B01339A
:1046CC00F2180021334603F8011B9342FBD1BAF1D7
:1046DC00030F00F02781634BBAF1010F18BF6FF085
:1046EC00FF031C4304943470BDF810301B0A737024
:1046FC00BDF81230B3709DF81330F370019C012398
:10470C00224631462846FCF7A9F80134E8B941F2B3
:10471C000A03F15A31B131440246334603F8012BF6
:10472C008B42FBD101239845049305D858E0049B98
:10473C0001334345049353D2012322463146284684
:10474C001C44FCF78BF80028F1D001202FE60C203C
:10475C002DE60B202BE60A2029E64FEA5C234FF4CA
:10476C00FA6797FBF3F7B1FBF7F7B7F5806F80F0BB
:10477C00F2803D484FF40072002301E030F8022F24
:10478C00974203F10103F9D3384A02EB4303B3F820
:10479C00A870B7F5007FFFF460AE5CE64FF000093F
:1047AC0049E64FF6F57E734503F1020009D8430044
:1047BC004FF0020A64E6802F28BF8027B1FBF7F385
:1047CC0050E602EB8003B3FBFCF800234FF0030A26
:1047DC0000934FF0200B5DE6002381E6F024E4E625
:1047EC00009BBAF1030F08BF3B46E71802E0BC423E
:1047FC0000F0B68001232246314628461C44FCF7C3
:10480C002DF80028F3D0A0E740F6F5739A427FF616
:10481C004CAEB1F5803F2CBF062004207BE60198FE
:10482C009B441844A1EB0B02009B0190A2EB0802E5
:10483C004FF6F57CD31AB3FBF7F3634502937FF67F
:10484C0034AE0C2067E6180C1B0E86F8201086F888
:10485C00212086F8220086F82330DFE680740008D9
:10486C00A074000800FFFF0036740008A473000851
:10487C0086F8430086F8241086F82520C0F307211B
:10488C00020C000E5A4B86F8441086F845204FEA6D
:10489C0018414FEA186286F84600022086F8261066
:1048AC0086F82720012129224FF0060E86F82C00CD
:1048BC00802086F8422086F82DB086F82EB086F837
:1048CC002FB086F831B086F833B003F1130C86F8AC
:1048DC00301086F832E086F8400006F1460213F8F4
:1048EC00011B02F8011F6345F9D15522AA2386F852
:1048FC00FE2186F8FF314A46012331462846FBF754
:10490C00ADFF00287FF421AF012309F106023146E7
:10491C002846FBF7A3FF41F20A03F25A531E002A62
:10492C007FF4CDAE64F0FF0404943470BDF8103005
:10493C001B0A7370BDF81230B3709DF81330F3700E
:10494C000F22FF2333717371B371F371337273726E
:10495C00B372F272D2E64FF400477CE50346BFE532
:10496C00BAF1030F3BD1029B86F8ED01013BC3F377
:10497C0007224FEA134C1F0E612186F8E83172238F
:10498C00522486F8EE0186F8EF0186F8E92186F8C4
:10499C00EB7141225520B17086F8E71186F8E431AD
:1049AC00AA2186F8E53102270123F27086F8E62168
:1049BC0086F8FE0109EB030286F8FF1186F8EAC1BE
:1049CC0031463470747086F8EC712846FBF746FF5C
:1049DC0009F10702314601232846FBF73FFF00226D
:1049EC0028461146FBF748FF003018BF0120DEE4D3
:1049FC008C7400082DE9F041804682B017464E1E9B
:104A0C0005460024B44201AB4FF00102694638461A
:104A1C000EDAFEF7CBF9019B012B09D19DF8003082
:104A2C000D2BEFD00A2B05F8013B04F10104E9D161
:104A3C00002C4FF0000314BF404618462B7002B0F8
:104A4C00BDE8F08100B595B000230191014601A8A5
:104A5C00CDE90233FEF760FC029A002A0DDB6B46AF
:104A6C0004A90198FEF7DAFA38B9029A009B9A4227
:104A7C0003D1039815B05DF804FB4FF0FF30F9E754
:104A8C0010B5044694B00846217801900023CDE976
:104A9C000233B1B101A8FEF73FFC14F8011F002945
:104AAC00F8D1029A002A0EDB01986B4604A9FEF796
:104ABC00B5FA40B9029A009B9A4204D1039814B0FB
:104ACC0010BD0A46F1E74FF0FF30F8E70EB42DE9C0
:104ADC00F04F9AB023AB0022CDE9082253F8046BB7
:104AEC00079001930DF10B0A317841B125291DD0A6
:104AFC00013607A8FEF710FC31780029F6D1089A88
:104B0C00002AC0F2738102AB0AA90798FEF786FA55
:104B1C00002840F06B81089A029B9A4240F0668113
:104B2C0009981AB0BDE8F04F03B07047717830297E
:104B3C0000F021812D2900F0268102364FF0000C67
:104B4C00A1F13003092B4FF000040BD804EB8404C3
:104B5C0001EB440416F8011BA1F13003092BA4F15D
:104B6C003004F3D901F0DF034C2B27D00029C6D039
:104B7C00A1F16103192B9ABFA1F12003DBB20B4603
:104B8C00A3F14202162A00F2F280DFE812F0B6001E
:104B9C00AE009700F000F000F000F000F000F00024
:104BAC00F000F000F000F0001C00F000F000F0004D
:104BBC00C000F0009700F000F0008B0031784CF052
:104BCC00040C0136D2E7019D2A461CF0040F4FF06D
:104BDC00080752F804EB7AD0442B0192704602D1AC
:104BEC00BEF1000F7ADB4FF0000878290CBF4FF0B4
:104BFC0027094FF0070903A94FF0000E03E0102D11
:104C0C0000F0BE80AE46B0FBF7F207FB1205EBB22C
:104C1C00092D84BF4B44DBB23033104601F8013B05
:104C2C000EF10105002AEAD1B8F1000F06D01AAB3B
:104C3C002B442D220EF1020503F85C2C1CF0010F05
:104C4C000CBF4FF020094FF030091CF0020F05F19A
:104C5C00010740F0C280A54280F0C38004F1010B33
:104C6C000DF11C08013749464046FEF755FB5F45E0
:104C7C00F8D1BB46A71C013D03AB1D4415F8011927
:104C8C004046FEF749FBAA45F8D1A34501D32BE7D3
:104C9C001F4649464046FEF73FFBBC4207F1010365
:104CAC00F6D821E7019D2A461CF0040F52F8040B9C
:104CBC0074D0019210274FF0000896E7019D2A4608
:104CCC001CF0040F4FF00A0752F804EB84D1442B6C
:104CDC005FD1BEF1000F0192704684DACEF1000074
:104CEC004CF0080C4FF008087FE7019B07A81A1D31
:104CFC0019780192FEF710FBF6E6019D2A461CF08E
:104D0C00040F52F8040B43D0019202276BE7019B6E
:104D1C001F68397804330CF0020C0193002943D03E
:104D2C003A46002300E04B4612F8010F03F101094B
:104D3C000028F8D19D1CBCF1000F3BD00DF11C08D4
:104D4C004046FEF7E9FA17F8011F0029F8D14C4547
:104D5C007FF6CAAE0DF11C0800E01D46202140462E
:104D6C00FEF7DAFAAC4205F10103F6D8BCE607A867
:104D7C00FEF7D2FAB8E6B1784FF0010C0336DFE655
:104D8C004FF00F0E50E7B1784FF0020C0336D7E618
:104D9C000227019228684FF0000826E7102701929D
:104DAC0028684FF0000820E7BCF1000F26D0894698
:104DBC000125CCE7A1451CD20DF11C0800E04D46A5
:104DCC0020214046FEF7A8FAAC4205F10109F6D8BD
:104DDC00397802350029B3D1B9E7AB460DF11C087F
:104DEC0049E7BB460DF11C08AF1C44E74FF0FF3000
:104DFC0097E6A9460DF11C08DD1CA1E7002C3FF439
:104E0C0073AE0125D8E700BF0D4B0E4A196841F06F
:104E1C000101196059680A405A601A6822F08472BC
:104E2C0022F480321A601A6822F480221A605A68BE
:104E3C004FF41F0122F4FE025A609960704700BFC4
:104E4C00001002400000FFF80C4B1A6822F480326C
:104E5C001A601A68B0F5803F22F480221A6008D0DC
:104E6C00B0F5802F04D11A6842F4A0221A60704762
:104E7C0070471A6842F480321A6070470010024082
:104E8C0082B00023094A0193136813F4003F019B7D
:104E9C0003F101030193019B02D1B3F5A06FF3D190
:104EAC00024B1868C0F3404002B07047001002403B
:104EBC00034A136823F0F80343EAC00010607047FC
:104ECC0000100240014B1860704700BF00004242C6
:104EDC00034A536823F47C13194301435160704710
:104EEC0000100240014B1860704700BF6000424246
:104EFC00034A536823F0030318435060704700BF04
:104F0C0000100240024B586800F00C00704700BFC4
:104F1C0000100240034A536823F0F003184350601A
:104F2C00704700BF00100240034A536823F4E0634B
:104F3C0018435060704700BF00100240034A53688A
:104F4C0023F4605343EAC0005060704700100240E5
:104F5C00044A137819B923EA0000107070471843FB
:104F6C001070704709100240014B1860704700BF69
:104F7C00D8004242034A536823F44043184350601C
:104F8C00704700BF00100240064B002201281A7027
:104F9C001A7005D0042802D105221A707047704788
:104FAC001870704720100240014B1860704700BF0A
:104FBC0080044242024A136A18431062704700BFD1
:104FCC0000100240014B1860704700BF3C04424285
:104FDC001E4A536803F00C03082B10B40FD153680E
:104FEC005168C3F38343C90303F1020329D5526803
:104FFC00920326D4164A02FB03F3036001E0144B20
:10500C0003601249134A4C68C4F30314145DE34063
:10501C0043604C68C4F30224145D23FA04F48460E6
:10502C004C68C4F3C224145DE340C36049685DF866
:10503C00044BC1F381310A44127CB3FBF2F30361DC
:10504C007047054A02FB03F30360DAE700100240E5
:10505C0000127A002C00002000093D00044A53691C
:10506C0019B923EA0000506170471843506170472A
:10507C0000100240044A936919B923EA00009061B8
:10508C00704718439061704700100240044AD3697E
:10509C0019B923EA0000D06170471843D0617047FA
:1050AC0000100240044AD36819B923EA0000D0600A
:1050BC0070471843D060704700100240044A1369CF
:1050CC0019B923EA0000106170471843106170474A
:1050DC0000100240014B1860704700BF4004424270
:1050EC00014B1860704700BF4C004242014B1870D6
:1050FC00704700BF071002404309012B0BD0022B55
:10510C00094B0CBF1B6A5B6A00F01F0023FA00F00E
:10511C0000F001007047044B1B6800F01F0023FADD
:10512C0000F000F00100704700100240024A536A80
:10513C0043F080735362704700100240034B9B682E
:10514C00184214BF01200020704700BF001002401D
:10515C00014B1870704700BF0A10024008B52F4B66
:10516C0098421CD02E4B984223D02E4B98422AD0DA
:10517C002D4B984231D02D4B984206D02C4B984257
:10518C0041D02C4B984232D008BD01214020FFF772
:10519C0089FF00214020BDE80840FFF783BF0121B3
:1051AC000420FFF77FFF00210420BDE80840FFF733
:1051BC0079BF01210820FFF775FF00210820BDE809
:1051CC000840FFF76FBF01211020FFF76BFF002194
:1051DC001020BDE80840FFF765BF01212020FFF734
:1051EC0061FF00212020BDE80840FFF75BBF0121D3
:1051FC004FF48070FFF756FF00214FF48070BDE82C
:10520C000840FFF74FBF01218020FFF74BFF002123
:10521C008020BDE80840FFF745BF00BF00080140F3
:10522C00000C014000100140001401400018014026
:10523C00001C01400020014008B501210846FFF781
:10524C0031FF00210120BDE80840FFF72BBF00BF54
:10525C002DE9F041CD78EB0648BF8B78098805F035
:10526C000F0748BF1F4311F0FF0F21D00668002322
:10527C004FF0010C4FF00F0802E00133082B16D051
:10528C000CFA03F232EA0104F7D19C0008FA04FE8E
:10529C0026EA0E0607FA04F4282D46EA040632D054
:1052AC00482D03F1010308BF0261082BE8D1066009
:1052BC00FF2924D9466808234FF0010C4FF00F0842
:1052CC0002E00133102B19D00CFA03F434EA01027A
:1052DC00F7D103F18042083A920008FA02FE26EA5E
:1052EC000E0607FA02F2282D46EA020609D0482DCE
:1052FC0003F1010308BF0461102BE5D14660BDE842
:10530C00F0814461DDE74261B7E700BF4FF6FF7102
:10531C000222042301808270C37070478368194293
:10532C0014BF012000207047806880B2704700BF16
:10533C00C368194214BF012000207047C06880B2B6
:10534C00704700BF01617047416170470AB9416104
:10535C0070470161704700BFC160704741F48033F2
:10536C00836181618361836983697047064A13682D
:10537C0010B44FF680742340194341EA00111160B8
:10538C005DF8044B704700BF00000140014B1860F2
:10539C00704700BF1C0020420028194B00F440123B
:1053AC00B4BFDB695B68B2F5401F30B484B21ED069
:1053BC00C20213D5C0F303450322AA4023EA020319
:1053CC0043F0706319B1420D1201944023430C4A0F
:1053DC000028B4BFD361536030BC7047420D12013A
:1053EC0004FA02F223EA020343F07063EAE7044D85
:1053FC006A6822F0706223F070636A60E2E700BFB3
:10540C000000014001F0FC0303F1804303F58033FD
:10541C0001F0030110B49A6889000F248C4022EA31
:10542C0004029A609A685DF8044B00FA01F111438A
:10543C0099607047014B1860704700BFDC00204238
:10544C0070B4058C1A4E25F001052D042D0C058425
:10545C00048B058C24F0F304240442EA0313240C7B
:10546C001C43B04241F00101A4B2ADB219D0114BB2
:10547C00984216D0B0F1804F13D0A3F598339842D0
:10548C000FD003F5806398420BD003F580639842EC
:10549C0007D025F00A0343EA01050483058470BC98
:1054AC00704725F002050D430483058470BC7047DA
:1054BC00002C014000340140F0B4048C1C4E24F04C
:1054CC0010042404240C0484078B048C120240F670
:1054DC00FF4542EA03333D402B430A01B0429BB2E5
:1054EC00A4B292B21AD0134DA84217D0B0F1804F8B
:1054FC0014D0A5F59835A84210D005F58065A842C2
:10550C000CD005F58065A84208D024F0A00441F029
:10551C0010010C4303830484F0BC704724F0200476
:10552C0042F01002144303830484F0BC704700BFA4
:10553C00002C01400034014008B57B4B984241D00F
:10554C00B0F1804F4AD0794B984251D0784B984269
:10555C0058D0784B98422BD0774B98425CD0774BF5
:10556C00984263D0764B984276D0764B98427FD057
:10557C00754B984264D0754B984200F08580744B03
:10558C00984200F08D80734B984200F09380724BE0
:10559C00984200F09980714B984200F0A180704BBA
:1055AC00984200F0B5806F4B984200F0A58008BD82
:1055BC0001210820FFF782FD00210820BDE80840EA
:1055CC00FFF77CBD01214FF40060FFF76BFD00215C
:1055DC004FF40060BDE80840FFF764BD01210846A8
:1055EC00FFF76CFD00210120BDE80840FFF766BD08
:1055FC0001210220FFF762FD00210220BDE80840D6
:10560C00FFF75CBD01210420FFF758FD00210420A9
:10561C00BDE80840FFF752BD01211020FFF74EFDF9
:10562C0000211020BDE80840FFF748BD01212020D3
:10563C00FFF744FD00212020BDE80840FFF73EBDE8
:10564C0001214FF48010FFF72DFD00214FF4801045
:10565C00BDE80840FFF726BD01214FF40050FFF7CD
:10566C0021FD00214FF40050BDE80840FFF71ABDA2
:10567C0001214FF40020FFF715FD00214FF400200D
:10568C00BDE80840FFF70EBD01214FF40010FFF7F5
:10569C0009FD00214FF40010BDE80840FFF702BDE2
:1056AC0001214020FFF70AFD00214020BDE8084001
:1056BC00FFF704BD01218020FFF700FD00218020B1
:1056CC00BDE80840FFF7FABC01214FF48070FFF7EA
:1056DC00F5FC00214FF48070BDE80840FFF7EEBCEC
:1056EC0001214FF48030FFF7DDFC00214FF48030B6
:1056FC00BDE80840FFF7D6BC01214FF48020FFF72E
:10570C00D1FC00214FF48020BDE80840FFF7CABC53
:10571C0001214FF40030FFF7C5FC00214FF400309D
:10572C00BDE80840FFF7BEBC002C0140000400405F
:10573C0000080040000C0040001000400014004025
:10574C0000340140004C0140005001400054014025
:10575C0000180040001C00400020004000400140A8
:10576C000044014000480140274A0388904270B42D
:10577C009BB212D002F5006290420ED0B0F1804F75
:10578C000BD0A2F59832904207D002F5806290427D
:10579C0003D002F58062904203D14A8823F0700353
:1057AC0013431A4D8C880A88A84215D005F58065DC
:1057BC00A84211D0CE8823F4407305F58C359BB2EA
:1057CC003343A8420380848502850CD10B7A03866F
:1057DC000123838270BC704703808485028501237A
:1057EC00838270BC70470A4B9842EFD003F540633C
:1057FC009842EBD003F580639842E7D003F58063C1
:10580C009842E3D0EBE700BF002C014000100040B1
:10581C0000340140F0B4048C0D89B1F802C00F883B
:10582C001E4E24F001042404240C0484028C84886D
:10583C00038B22F0020223F0730312041B04120CDC
:10584C0045EA0C051B0CB04242EA0502A4B243EA3D
:10585C0007030ED0124DA8420BD005F54065A842A7
:10586C0007D005F58065A84203D005F58065A842F0
:10587C000DD14E898D89CF8922F0080232438E8852
:10588C0024F4407422F004023D4332432C43C98873
:10589C0084800383F0BC818602847047002C014015
:1058AC0000340140F0B4048C0E89B1F802C00F88AA
:1058BC001D4D24F010042404240C0484038C8488CF
:1058CC00028B23F0200322F4E6421B0412041B0C6F
:1058DC0046EA0C06120C43EA061342EA0722A842D7
:1058EC009BB2A4B292B20AD005F50065A84206D0CC
:1058FC00C98884800283F0BC0187038470474D897A
:10590C008E89CF8923F0800343EA05134FF6BF75C8
:10591C001D408B8824F440643E4345EA031344EA5B
:10592C0086049BB2A4B2E3E7002C0140F0B5048CD2
:10593C000D89B1F802E00F881D4E24F48074240404
:10594C00240C0484038CB0F804C0828B23F4007301
:10595C001B0422F0730245EA0E041B0C120443EAEA
:10596C000423120CB0429BB21FFA8CF542EA0702D8
:10597C0008D0104CA04205D0C988858082838187CD
:10598C000384F0BD4C898E89CF8923F4006343EAEC
:10599C0004234FF6FF341C408B8825F440553E43BE
:1059AC0044EA032345EA06149BB2A5B2E4E700BF20
:1059BC00002C014000340140F0B4048C0E89B1F885
:1059CC0002C00F88174D24F480542404240C048442
:1059DC00038C8488828B23F4005322F4E6421B044C
:1059EC0012041B0C46EA0C06120C43EA063342EA7C
:1059FC000722A8429BB2A4B292B20BD005F5006567
:105A0C00A84207D0C98884808283F0BCA0F84010DB
:105A1C00038470478D8924F4804444EA8514A4B22D
:105A2C00F0E700BF002C0140F8B50D460E88AA889F
:105A3C0049882B890446002E49D0042E00F0928010
:105A4C00082E008C50D020F480500004000C2084D0
:105A5C00A78B4C4E208C1B0343EA022240F6FF43DB
:105A6C003B401A43B4424FEA013392B280B29BB22C
:105A7C0019D006F50066B44215D0B4F1804F12D09F
:105A8C00A6F59836B4420ED006F58066B4420AD01C
:105A9C0006F58066B44206D047F6FF53184008431B
:105AAC0040F4805304E020F4005040F48050034351
:105ABC00A2832384A38BEA8823F440631B041B0C6E
:105ACC00A383A38B43EA02239BB2A383F8BDFFF706
